:02000004080AE8
:1000000000000A08C8110A080000060006000501E1
:080010000402DB070000000000
:04001800CC0F0A08F7
:10001C0009480A4908B5884205D0094A824202D0EB
:10002C00121A00F08BFF0748074A0021121A00F041
:10003C0093FF064808BD00BF0000002034110A08D9
:10004C006C0000206C0000205401002054010020A2
:10005C0070B500F0B3FB0025054E064CA41BA4089C
:10006C00A54200D170BD56F8043B98470135F7E71F
:10007C0008110A0828110A0800F028B808B500F081
:10008C0053F8BDE8084000F05BBB00F0FFB900F08E
:10009C00FDB900F003BA0078B0FA80F0400970475F
:1000AC00012303707047000010B5074C80B2217813
:1000BC0029B1012100F0B9FE0023237010BD00F01E
:1000CC00B4FE0123F9E700BF0000002007B50121B1
:1000DC00072000F099FE0023B4220121CDE9003263
:1000EC0010484FF416634FF4087200F01DFA072005
:1000FC00FFF7DAFF4FF4FA7000F0CCFA0720FFF7A5
:10010C00D3FF4FF4FA7000F0C5FA0720FFF7CCFFCD
:10011C004FF4FA7000F0BEFA072003B05DF804EB60
:10012C00FFF7C2BF7000002010B500F049F804467C
:10013C0000F046F8001B312806D900F041F8BDE864
:10014C0010400720FFF7B0BF10BD000010B5054CE4
:10015C00204600F0CFF92046BDE81040024A034982
:10016C0000F0D4BE700000206C00002029050A08A5
:10017C0008B5024B1B685B68019308BDB00106080B
:10018C0008B5024B1B689B68019308BDB0010608BB
:10019C0008B5024B1B68DB68019308BDB00106086B
:1001AC0008B5024B1B681B69019308BDB00106081A
:1001BC0008B5024B1B685B68019308BD9C010608DF
:1001CC0008B5024B1B685B69019308BD9C010608CE
:1001DC0008B5024B1B685B6C019308BDD001060887
:1001EC0008B5024B1B689B6C019308BDD001060837
:1001FC0008B5024B1B689B69019308BDC401060836
:10020C0008B5024B1B685B6A019308BDC401060864
:10021C0008B5024B1B689B6A019308BDC401060814
:10022C0008B5024B1B68DB6A019308BDC4010608C4
:10023C0008B5024B1B681B6B019308BDC401060873
:10024C0008B5024B1B685B6B019308BDC401060823
:10025C0008B5024B1B689B6B019308BDC4010608D3
:10026C0008B5024B1B681B6C019308BDC401060842
:10027C0008B5024B1B681B6E019308BDAC01060848
:10028C0008B5024B1B685B6E019308BDAC010608F8
:10029C0008B5024B1B689B6E019308BDAC010608A8
:1002AC0008B5024B1B68DB6E019308BDAC01060858
:1002BC0008B5024B1B681B6F019308BDAC01060807
:1002CC0008B5024B1B685B6F019308BDAC010608B7
:1002DC0008B5034B1B68D3F88030019308BD0000B0
:1002EC00AC01060808B5024B1B68DB69019308BD1D
:1002FC00B401060808B5024B1B681B6A019308BDC4
:10030C00B401060808B5024B1B681B69019308BDB4
:10031C00A801060808B5024B1B685B69019308BD70
:10032C00A801060808B5024B1B681B68019308BDA1
:10033C00D801060808B5024B1B681B69019308BD60
:10034C00D801060808B5024B1B685B69019308BD10
:10035C00D801060808B5024B1B689B69019308BDC0
:10036C00D801060808B5024B1B68DB69019308BD70
:10037C00D801060808B5024B1B681B6A019308BD1F
:10038C00D801060808B5024B1B689B6C019308BD8D
:10039C00C001060808B5024B1B685B68019308BDD9
:1003AC00A401060808B5024B1B685B69019308BDE4
:1003BC00A401060808B5034B1B68D3F890300193D1
:1003CC0008BD0000A401060808B5034B1B68D3F850
:1003DC009C30019308BD0000A401060808B5024B2F
:1003EC001B685B68019308BDC801060808B5024B81
:1003FC001B689B68019308BDC801060808B5024B31
:10040C001B68DB68019308BDC801060808B5024BE0
:10041C001B681B69019308BDC801060808B5024B8F
:10042C001B685B69019308BDC801060808B5024B3F
:10043C001B689B69019308BDC801060808B5024BEF
:10044C001B68DB69019308BDC801060808B5024B9F
:10045C001B681B6A019308BDC801060808B5024B4E
:10046C001B681B6B019308BDC801060808B5024B3D
:10047C001B685B6B019308BDC801060808B5024BED
:10048C001B68DB6B019308BDCC01060808B5024B59
:10049C001B681B68019308BDA001060808B5024B38
:1004AC001B685B68019308BDA001060808B5024BE8
:1004BC001B685B6C019308BDA001060870B5002693
:1004CC0004460D4640F8086FFFF782FE284625705B
:1004DC00FFF708FF2046666070BD00004FF41663FE
:1004EC00034AC0E90023B42303810023C36070478F
:1004FC00FFFF200208B5FFF7F1FF08BD10B5044659
:10050C00B0F90000431C07D080B2FFF703FF204670
:10051C00FFF7E4FF012010BD0020FCE710B50446F6
:10052C00FFF7ECFF204610BD2DE9F0410D460446C7
:10053C000221284690461F46FFF71AFE022803D0D8
:10054C0000263046BDE8F081284600F017FC064630
:10055C000028F5D0B4F90030013302D02046FFF763
:10056C00CDFFBDF918302846E380BDF91C3025803D
:10057C00A4F80280A7802381FFF7C4FEE1E710B541
:10058C000446006818B1FFF789FF0023236010BDF3
:10059C0010B50446FFF7F3FF204610BD02220020E1
:1005AC0010B5084B084C1A60084B2060A080A07155
:1005BC00A360FFF7EFFE2046BDE81040044A054952
:1005CC0000F0A4BC8C000020800000200000FFFF85
:1005DC006C0000209D050A08F8B506460D4600245F
:1005EC008F18BD420CD0336830469B6815F8011B40
:1005FC009847031E01DB1C44F3E7002C08BF1C4684
:10060C002046F8BD70B505460C46084649B100F0C9
:10061C00CFFC2B68024621462846BDE87040DB68BB
:10062C00184770BD03689B6818470023012A98BFC0
:10063C000A2230B58BB00C468DF8243009A925461A
:10064C00B4FBF2F404FB1253DBB2092B94BF30332E
:10065C003733DBB2AA4201F8013DF0D9FFF7D2FFE4
:10066C000BB030BD002340681A461946FFF7D6BEC2
:10067C00014B024A1A60704790000020E00F0A08F4
:10068C00024B1A68024B1A60704700BF040000202E
:10069C00940000200021FFF785BE10B58368044646
:1006AC0013B1032201469847204610BD10B50446ED
:1006BC00FFF7F3FF204610BD00230348034A04490B
:1006CC00836000F023BC00BF980000206C00002069
:1006DC00B9060A08014B1860704700BF08000020DB
:1006EC0008B5134B43B100F057F903681B699847E1
:1006FC00002801DDAFF300800E4B43B100F0F6F99A
:10070C0003681B699847002801DDAFF300800A4B92
:10071C000BB1AFF30080094B43B100F06DF90368E6
:10072C001B699847002801DDAFF3008008BD00BFAE
:10073C0000000000000000000000000000000000AD
:10074C0008B5FFF7CDFFFFF73BFD014B186008BD67
:10075C00200100200248034A0349121A00F0EEBBA4
:10076C00004002400440024030110A08002307B543
:10077C001A466FF077010093FFF726FE03B05DF881
:10078C0004FB000007B543880A2B08D0502B0BD173
:10079C00094B1B684BB103B05DF804EB1847FFF72E
:1007AC00E5FF03B05DF804FB00231A466FF07701F8
:1007BC000093FFF709FEF4E7AC00002038B5124CAB
:1007CC0000211248FFF772FE114D2368AB420CBF9B
:1007DC00012200220F4B1A7002D0FFF7BBFF2560DD
:1007EC00FFF7E6FC044600F0BFFB0B4B13B12046B1
:1007FC00AFF3008000210848FFF740FEBDE8384009
:10080C0000210648FFF7D6BD00400240E1060A0869
:10081C001E1C279AA80000200000000091070A085F
:10082C00704710B50446182100F075FB204610BD2A
:10083C00F8B50E46002400F10807051D17F8011D38
:10084C000A223046FFF7F1FEAF42044401D12046A4
:10085C00F8BD002CF2D02E213046FFF7E3FE044405
:10086C00ECE7000010B50446044B1122002140F8BF
:10087C00043B00F071FB204610BD00BF08100A08B5
:10088C000346074A10B543F8042B01F1100251F846
:10089C00044B914243F8044BF9D10A781A7010BDFD
:1008AC0008100A08024AC0E90021042202757047A8
:1008BC0008100A0810B59DF8084044EA03240423E4
:1008CC0044EA024444EA01644460037510BD00002C
:1008DC0037B5044D05609DF818500095FFF7EAFFF9
:1008EC0003B030BD08100A0841747047704708B552
:1008FC000021007CFFF72EFD40EAE07008BD08B532
:10090C000121007CFFF726FD40EAE07008BD08B528
:10091C00007CFFF717FD20EAE07008BD08B5007CED
:10092C00FFF708FD20EAE07008BD38B50446007CEE
:10093C000D46FFF707FD002801DC607C28B1294635
:10094C00207CFFF70FFD20EAE07038BD007CFFF73C
:10095C0011BD10B50446142100F0DDFA204610BD7F
:10096C0010B54FF47A73044608460021C4E901130C
:10097C00044B20742360012311466374FFF7D2FCEF
:10098C00204610BD1C100A0810B504461422002184
:10099C0000F0E2FA204610BD30B50F4D87B001A82B
:1009AC00FFF7F2FF2978BFF35B8F11F0010410D130
:1009BC002846FFF770FB60B1214601AA0748FFF7F4
:1009CC00CFFF2846FFF76CFB054A0649034800F0A9
:1009DC009DFA024807B030BDB0000020B8000020DE
:1009EC006C000020F9080A0810B5044614220021F6
:1009FC0000F0B2FA204610BD10B50F4C86B001A81D
:100A0C00FFF7F2FF2378BFF35B8FDB0710D4204690
:100A1C00FFF741FB60B1012101AA0848FFF7A0FFD5
:100A2C002046FFF73DFB064A0649044800F06EFAE3
:100A3C00024806B010BD00BFB4000020CC0000205E
:100A4C006C000020F9080A0870474174704708B51B
:100A5C00007CFFF705FC20EAE07008BD08B5007CBF
:100A6C00FFF7D6FB20EAE07008BD08B5007CFFF765
:100A7C00DFFB40EAE07008BD08B5007CFFF7D0FB57
:100A8C0040EAE07008BD007CFFF7DABB70B5467C2D
:100A9C0004460D462EB12946207CBDE87040FFF778
:100AAC00AFBB007CFFF7DCFB0028F4DC304670BDEC
:100ABC0010B50446142100F02EFA204610BD00009B
:100ACC004FF0000C10B50446084611464FF47A72EC
:100ADC00C4E901C2044A20742260012262741A46DD
:100AEC00FFF786FB204610BD4C100A08F8B51A4CCF
:100AFC0026684EB98420FFF7C8FA054618B184223F
:100B0C00314600F029FA2560144D2F684FB9842026
:100B1C00FFF7BBFA064618B18422394600F01CFADE
:100B2C002E600F4F3978BFF35B8F11F0010611D196
:100B3C003846FFF7B0FA68B1314622682B6809488D
:100B4C00FFF7BEFF3846FFF7ABFA074A07490548DF
:100B5C0000F0DCF90348F8BDE4000020E8000020B8
:100B6C00E0000020EC0000206C000020550A0A0870
:100B7C007047F8B5064615460C468F18BC4206D091
:100B8C00336830469B6814F8011B9847F6E72846F3
:100B9C00F8BD0022007CFFF76BBB0021007CFFF747
:100BAC006FBB0021007CFFF773BB0021007CFFF7BB
:100BBC0077BB0021007CFFF77BBB10B504461421EA
:100BCC0000F0A9F9204610BD10B54FF47A73044615
:100BDC0008460021C4E90113034B1146236020741D
:100BEC00FFF776FB204610BD7C100A0800224068F7
:100BFC001146FFF70BBCF0B5154689B011220E4615
:100C0C000446002103A800F0A7F9284600F0D0F90B
:100C1C00002781B273682846009703AAFFF7B2FB3E
:100C2C0030B139462046FFF73DFE204609B0F0BDF5
:100C3C00204603A9FFF724FEF7E70022406811467F
:100C4C00FFF704BC002240681146FFF70FBC0022DE
:100C5C004068FFF703BC0022406881F00101FFF7F8
:100C6C00EDBB002340681A461946FFF7DFBB002294
:100C7C0040681146FFF7BABB002202214068FFF71B
:100C8C00BDBB002340681A46FFF7A8BB0422024BE9
:100C9C005A60024A1A60704700010020A4100A082A
:100CAC00002340681A46FFF799BB002202214068D6
:100CBC00FFF7A4BB002240681146FFF797BB002248
:100CCC0040681146FFF7A2BB002340681A4619463C
:100CDC00FFF7A4BB002340681A461946FFF7A6BBD2
:100CEC000022406881F00101FFF7A8BB0022406898
:100CFC00FFF7B4BB002240681146FFF7B7BB0022D8
:100D0C0040681146FFF7A2BB70B515468EB004467D
:100D1C0008A8FFF7A7FD1122002103A800F01CF979
:100D2C000026284600F044F90A4B009681B25B6815
:100D3C00284603AAFFF726FB30B131462046FFF7C1
:100D4C00B1FD20460EB070BD204603A9FFF798FDFB
:100D5C00F7E700BF00010020024B034A1A60002293
:100D6C005A60704708010020D8100A0810B50446D4
:100D7C00806808B1FFF734FA204610BD172870B50B
:100D8C00044601D9002070BDA0F10D03022B0BD934
:100D9C00012826D800F092F80021007CFFF790FA89
:100DAC0080F00100C0B2EEE7134E3178BFF35B8FD9
:100DBC0011F001050FD13046FFF76DF958B12946F6
:100DCC000E48FFF77BFB3046FFF76AF90C4A0D49DA
:100DDC000A4800F09BF8094B1878FFF78BFA0028AB
:100DEC00D0D1123C012C05D8FFF780FE007CFFF718
:100DFC002FFAD5E70120C6E71001002014010020CE
:100E0C006C000020790D0A08172838B504460D46E9
:100E1C000AD8FF2908D0FFF7B1FF28B12946204690
:100E2C00BDE83840FFF7ACB938BD38B504460D46BF
:100E3C00FFF7AEF9FF2810D0062804D84D2323FA6B
:100E4C0000F0C30709D42046FFF798FF28B12946C4
:100E5C002046BDE83840FFF7A3B938BD002313B5D1
:100E6C00074C1A46194620460093FFF731FD2046E1
:100E7C00044A054902B0BDE8104000F047B800BF75
:100E8C00240100206C0000202D080A08002370B5F6
:100E9C00202543801423084E044603803146856088
:100EAC000561284600F039F831466060284600F0AC
:100EBC0034F8E060204670BD04110A0830B50F4DBF
:100ECC0087B02978BFF35B8F11F0010413D128464A
:100EDC00FFF7E1F878B101A8FFF7D8FF214601AA86
:100EEC000748FFF771FE2846FFF7DAF8054A06496E
:100EFC00034800F00BF8024807B030BD3C0100205D
:100F0C00400100206C0000207D0B0A080B460146B6
:100F1C00184600F005B8FFF7BCB8FFF7B8B80000EA
:100F2C0010B504460448134620B10A460220214657
:100F3C00AFF3008010BD00BF000000000A449142D6
:100F4C0000F1FF3300D1704710B511F8014B9142FD
:100F5C0003F8014FF9D110BD03460244934200D16E
:100F6C00704703F8011BF9E738B50D4B04461D68B3
:100F7C00AB6B7BB91820FFF789FA0A4A0A4BA863B6
:100F8C00C0E90023094B012283600B2383810023DA
:100F9C00C0E904230022AB6B1C615A6138BD00BF51
:100FAC00080000200E33CDAB34126DE6ECDE0500EC
:100FBC00034613F8012B002AFBD1181A013870478D
:100FCC001D000A085D000A0885000A0889000A0845
:100FDC00000000006170700025592D256D2D2564D1
:100FEC005425483A254D3A2553257A00617363748C
:100FFC00696D650000000000000000003D080A0853
:10100C002D080A082F080A08000000000000000044
:10101C00F9080A085F090A0837090A08E5050A08E9
:10102C0029090A08FB080A080B090A0859090A08C1
:10103C001B090A08F5080A0800000000000000005F
:10104C00550A0A08BD0A0A08990A0A08E5050A0899
:10105C00690A0A08850A0A08770A0A08930A0A081C
:10106C00570A0A085B0A0A0800000000000000008A
:10107C007D0B0A08C70B0A089F0B0A087F0B0A088E
:10108C00A70B0A08AF0B0A08B70B0A08BF0B0A0814
:10109C0000000000000000008F0C0A08850C0A08F4
:1010AC007B0C0A08F90B0A0871060A086F0C0A086F
:1010BC00630C0A085B0C0A08510C0A08470C0A0856
:1010CC00030C0A080000000000000000AD0C0A0828
:1010DC00B70C0A08C10C0A08CB0C0A08D50C0A0874
:1010EC00E10C0A08ED0C0A08F90C0A08010D0A08B3
:1010FC000B0D0A08150D0A080000000059010A081A
:10110C00A9050A087D060A088D060A08C5060A08FC
:10111C00990C0A08650D0A08690E0A0800000000FF
:04112C0000000000BF
:0411300000000000BB
:1011340001000000F80F0A080C0000200000000065
:10114400000000000000000000000000000000009B
:10115400000000000000000000000000000000008B
:10116400000000000000000000000000000000007B
:10117400000000000000000000000000000000006B
:10118400000000000000000000000000000000005B
:0C1194000000000000000000000000004F
:1011A000FFFFFFFF00000102030405060708090A0C
:1011B0000B0C0D0E0F101112131415161718191A07
:0811C0001B1C1D1E1F2028004E
:0411C800785634120F
:04000005080A001CC9
:00000001FF
